:020000040800F2
:100000000000022031170008ED160008EF16000866
:10001000F1160008F3160008F516000800000000AD
:10002000000000000000000000000000F7160008BB
:10003000F916000800000000FB160008FD16000875
:100040008117000881170008811700088117000830
:100050008117000881170008811700088117000820
:100060008117000881170008011700088117000890
:100070008117000881170008811700088117000800
:1000800081170008811700088117000881170008F0
:1000900081170008811700088117000881170008E0
:1000A00081170008811700088117000881170008D0
:1000B0000917000881170008811700088117000838
:1000C00081170008811700088117000881170008B0
:1000D00081170008811700088117000881170008A0
:1000E0008117000881170008811700088117000890
:1000F0008117000881170008811700088117000880
:10010000811700088117000881170008811700086F
:10011000811700088117000881170008811700085F
:10012000811700088117000881170008811700084F
:10013000811700088117000881170008811700083F
:10014000811700088117000881170008811700082F
:10015000811700088117000881170008811700081F
:10016000811700088117000881170008811700080F
:10017000811700088117000881170008000000009F
:08018000811700088117000837
:1001880010B5054C237833B9044B13B10448AFF3C9
:1001980000800123237010BD0C0000200000000027
:1001A800DC17000808B5034B1BB103490348AFF33C
:1001B800008008BD0000000010000020DC170008C7
:1001C80053B94AB9002908BF00281CBF4FF0FF31B6
:1001D8004FF0FF3000F07AB9ADF1080C6DE904CEAC
:1001E80000F006F8DDF804E0DDE9022304B070470A
:1001F8002DE9F0478C460D460446089E002B51D148
:100208008A4217466DD9B2FA82FEBEF1000F0BD0B2
:10021800CEF1200C01FA0EF520FA0CFC02FA0EF7CA
:100228004CEA050C00FA0EF44FEA174A250CBCFB01
:10023800FAF81FFA87F90AFB18CC45EA0C4508FBBF
:1002480009F3AB420AD9ED1908F1FF3280F0238196
:10025800AB4240F22081A8F102083D44ED1AA4B255
:10026800B5FBFAF00AFB105544EA054400FB09F90E
:10027800A14509D9E41900F1FF3380F00A81A145AD
:1002880040F2078102383C44A4EB090440EA0840E4
:100298000021002E61D024FA0EF40023346073602C
:1002A800BDE8F0878B4207D9002E54D0002186E89C
:1002B80021000846BDE8F087B3FA83F1002940F031
:1002C8008E80AB4202D3824200F2FA80841A65EB38
:1002D80003050120AC46002E3FD086E81010BDE88B
:1002E800F08712B90127B7FBF2F7B7FA87FEBEF11C
:1002F800000F34D1EB1B3A0C1FFA87FC0121B3FB2A
:10030800F2F8250C02FB183345EA03450CFB08F309
:10031800AB4207D9ED1908F1FF3002D2AB4200F227
:10032800D1808046ED1AA3B2B5FBF2F002FB10555E
:1003380043EA05440CFB00FCA44507D9E41900F185
:10034800FF3302D2A44500F2B8801846A4EB0C048F
:1003580040EA08409DE731463046BDE8F087CEF1D7
:10036800200405FA0EF307FA0EF720FA04F83A0CFF
:1003780025FA04F448EA0308B4FBF2F14FEA1845F9
:1003880002FB11441FFA87FC45EA044501FB0CF304
:10039800AB4200FA0EF409D9ED1901F1FF3080F0F3
:1003A8008A80AB4240F2878002393D44EB1A1FFA3B
:1003B80088F5B3FBF2F002FB103345EA034500FB76
:1003C8000CF3AB4207D9ED1900F1FF386FD2AB42FD
:1003D8006DD902383D44EB1A40EA01418FE7C1F17B
:1003E800200722FA07F88B4005FA01F448EA0303CC
:1003F80020FA07FE4FEA134CFD404EEA040EB5FB07
:10040800FCF94FEA1E440CFB19551FFA83F844EA1D
:10041800054509FB08F4AC4202FA01F200FA01FAB8
:1004280008D9ED1809F1FF3043D2AC4241D9A9F1FE
:1004380002091D442D1B1FFA8EFEB5FBFCF00CFBB8
:1004480010554EEA054400FB08F8A04507D9E41802
:1004580000F1FF3529D2A04527D902381C4440EACB
:100468000940A4EB0804A0FB02894C45C6464D464A
:1004780015D312D056B1BAEB0E0364EB050404FA97
:1004880007F7CB401F43CC40376074600021BDE8BC
:10049800F0871846F8E69046E0E6C245EAD2B8EB9F
:1004A800020E69EB03050138E4E72846D7E7404622
:1004B80091E78146BEE7014678E702383C4445E7C4
:1004C800084608E7A8F102083D442BE7704700BF3B
:1004D80038B50E4A0E4B054618784FF47A73B3FBBD
:1004E800F0F31068B0FBF3F000F096F8044658B942
:1004F8000F2D09D8024629464FF0FF3000F04AF880
:10050800044B20461D6038BD012038BD080000207E
:10051800000000200400002008B50B4B1A6842F4C4
:1005280000721A601A6842F480621A601A6842F40B
:1005380080721A60032000F01BF80020FFF7C8FF44
:1005480001F012F8002008BD003C0240034A044BA9
:1005580011681B780B441360704700BF2800002007
:1005680000000020014B1868704700BF28000020D9
:10057800074AD36823F4E0631B041B0C43F0BF63F2
:10058800000243F4003300F4E0600343D360704793
:1005980000ED00E0174B30B5DC68C4F30224C4F169
:1005A8000703251D042B28BF0423062D4FF0010542
:1005B80005FA03F303F1FF338CBF033C0024194011
:1005C800A14005FA04F4013C2240002842EA010255
:1005D8004FEA0212ADBF00F1604000F00F00064B79
:1005E80000F56140B5BFD2B2D2B21A5480F80023E8
:1005F80030BD00BF00ED00E014ED00E0002808DB8E
:100608004209012300F01F0003FA00F0014B43F8F0
:100618002200704700E100E00138B0F1807F0AD283
:10062800064B074A5860F02182F823100020072261
:1006380098601A6070470120704700BF10E000E022
:1006480000ED00E02DE9F04F85B00B68DFF8AC81D4
:10065800684ADFF8AC91019300230124019D9C4076
:100668002540AC4240F0B0804C6824F0100C0CF1EE
:10067800FF36012E4FEA430E12D88768032606FA82
:100688000EF627EA0607CE6806FA0EF63E4386609F
:100698004768C4F3001627EA05079E403E434660B4
:1006A8000326C76806FA0EF6F64307EA060A8F68B5
:1006B80007FA0EF747EA0A07BCF1020FC76016D11E
:1006C8004FEAD30A00EB8A0A03F0070BDAF8207026
:1006D8004FEA8B0B4FF00F0C0CFA0BFC27EA0C0CB3
:1006E8000F6907FA0BF747EA0C07CAF82070076882
:1006F8003E4004F0030707FA0EFE4EEA06060660BF
:10070800E60061D54FF0000BCDF80CB0D8F8447076
:10071800394E47F48047C8F84470D8F8447007F455
:1007280080470397039F23F0030707F1804707F5E6
:100738009C3703F0030CD7F808A04FEA8C0C4FF055
:100748000F0E0EFA0CFEB0422AEA0E0E43D006F542
:100758008066B04241D006F58066B0423FD006F5CB
:100768008066B0423DD006F58066B0423BD0484531
:100778003BD006F50066B04239D006F58066B04237
:1007880014BF0826072606FA0CF646EA0E06BE60CF
:100798001668EF4314F4803F0CBF3E402E431660AA
:1007A800566814F4003F0CBF3E402E4356609668CE
:1007B80014F4801F0CBF3E402E439660D668A402F6
:1007C80054BF3E402E43D6600133102B7FF445AF13
:1007D80005B0BDE8F08F5E46D5E70126D3E70226CF
:1007E800D1E70326CFE70426CDE70526CBE7062683
:1007F800C9E700BF003C0140000002400038024049
:10080800001402400AB1816170470904FBE7704790
:1008180008B5044B5969014202D05861FFF7F7FF48
:1008280008BD00BF003C01402DE9F341044608B96A
:1008380001203FE00368DD0710D4236898075AD4E5
:1008480023681A0700F19C8023685B0700F1BA80CF
:10085800A069002840F01B8100202BE0A44B9A6877
:1008680002F00C02042A07D09A6802F00C02082A47
:100878000AD15B68590207D59D4B1B689A03DCD5E2
:100888006368002BD9D1D3E76368994DB3F5803FEE
:1008980013D12B6843F480332B60FFF763FE944D2C
:1008A80006462B689B03C8D4FFF75CFE801B6428B0
:1008B800F7D9032002B0BDE8F081B3F5A02F04D129
:1008C8002B6843F480232B60E3E72A6822F4803204
:1008D8002A602A6822F480222A60002BDDD1FFF7E3
:1008E80041FE06462B689F03A7D5FFF73BFE801BFA
:1008F8006428F7D9DDE77E4B9A6812F00C0F07D011
:100908009A6802F00C02082A11D15B685E020ED4C4
:10091800774B1A68950702D5E268012A88D11A68C8
:10092800216922F0F80242EAC1021A6088E7E26807
:10093800704BB2B101221A60FFF714FE6C4D0646E7
:100948002B68980707D52B68226923F0F80343EA38
:10095800C2032B6074E7FFF705FE801B0228EFD95E
:10096800A7E71A60FFF7FEFD614D06462B68990759
:100978007FF566AFFFF7F6FD801B0228F6D998E7EA
:1009880062695D4B7AB101221A60FFF7EBFD584DA1
:1009980006466B6F9F073FF557AFFFF7E3FD801BD8
:1009A8000228F6D985E71A60FFF7DCFD504D0646A8
:1009B8006B6F98077FF548AFFFF7D4FD801B0228BF
:1009C800F6D976E74A4B1A6C12F0805228D1019278
:1009D8001A6C42F080521A641B6C03F08053019326
:1009E800019B0126454D2B68D9051BD5A368404DB1
:1009F800012B27D12B6F43F001032B67FFF7B2FDC3
:100A08003B4D074641F288382B6F9B0739D5002E9E
:100A18003FF41EAF364A136C23F08053136417E774
:100A28000026DFE72B6843F480732B60FFF79AFDFD
:100A380007462B68DA05D9D4FFF794FDC01B0228B6
:100A4800F7D936E7052B04D12B6F43F004032B6746
:100A5800D0E72A6F22F001022A672A6F22F00402E7
:100A68002A67002BCAD1FFF77DFD41F28838074677
:100A78002B6F9807CBD5FFF775FDC01B4045F7D9FD
:100A880017E7FFF76FFDC01B4045BDD911E7184DAB
:100A9800AB6803F00C03082B47D0194E002302283B
:100AA800336035D1FFF75EFD07462B68990129D4DD
:100AB800226AE3691343626A43EA8213E26A43EAF9
:100AC8000263A26A0A4C5208013A43EA02436B6085
:100AD80001233360FFF746FD054623689A013FF579
:100AE800BBAEFFF73FFD401B0228F6D9E1E600BF89
:100AF8000038024000004742800E47420070004024
:100B080060004742FFF72EFDC01B0228CDD9D0E672
:100B1800FFF728FD04462B689B017FF59DAEFFF784
:100B280021FD001B0228F6D9C3E601283FF4C2AE16
:100B3800A868E36900F480029A427FF479AE226AD9
:100B480000F03F0393427FF473AE626A47F6C073C6
:100B5800034093427FF46CAEA26A00F440339342A0
:100B68007FF466AEE36A00F07060C01A18BF012017
:100B7800A0E600BF134908B58B6803F00C03042BEB
:100B880003D0082B03D0104808BD104808BD4A6898
:100B98004B68496813F4800314BF0C480A48C1F332
:100BA800881118BF002302F03F02A1FB0001FFF7E4
:100BB80007FB044B5B68C3F3014301335B00B0FBE5
:100BC800F3F008BD003802400024F40000127A0057
:100BD8002DE9F0410D46044610B90120BDE8F08129
:100BE800444B1A6802F00F028A4229D321688F0702
:100BF8002ED4C80741D43F4B1A6802F00F02954221
:100C080067D3226851076DD4130707D53A4A21697B
:100C1800936823F4604343EAC1039360FFF7AAFF94
:100C2800354B364A9B68C3F30313D35CD840344B27
:100C38001860344B1868FFF74BFC0020BDE8F081C2
:100C4800CAB21A701B6803F00F039942C5D1CDE7E9
:100C5800294B11F0040F1EBF9A6842F4E0529A60C3
:100C68000E0742BF9A6842F460429A609A68A06888
:100C780022F0F00202439A60BBE762681E4B012A29
:100C88001DD11B6813F4003FA7D01B4EB36823F097
:100C980003031343B360FFF765FC41F28838074646
:100CA800B368626803F00C03B3EB820FA3D0FFF7BD
:100CB80059FCC01B4045F3D90320BDE8F081911EC3
:100CC80001291B6802D813F0007FDDE713F0020F3B
:100CD800DAE7EAB21A701B6803F00F039D427FF44B
:100CE8007CAF8EE70449E0688B6823F4E053034344
:100CF8008B6089E7003C024000380240F417000886
:100D08000800002004000020044B054A9B68C3F338
:100D18008223D35C034A1068D840704700380240E9
:100D28000418000808000020044B054A9B68C3F318
:100D38004233D35C034A1068D840704700380240F9
:100D4800041800080800002010B50446002836D012
:100D58000023836290F8513003F0FF021BB980F83A
:100D6800502000F021FC2168A068A269022384F8C1
:100D780051300B6823F040030B6063680343E0685D
:100D880003432069034360690343E0690343206A1E
:100D98000343A06A034302F4007003430B60120C80
:100DA800636A02F004021A434A60CB6923F40063C1
:100DB800CB6100200123606584F8513010BD01200B
:100DC80010BD7047704770477047704703681A69CD
:100DD800910710B504460ED5DA6892070BD56FF067
:100DE80002021A619B6901229B07027777D0FFF7FD
:100DF800EAFF0023237723681A69500710D5DA68B9
:100E080051070DD56FF004021A619B69022213F491
:100E1800407F2277204668D0FFF7D5FF002323774D
:100E280023681A6912070FD5DA6810070CD56FF016
:100E380008021A61DB6904229907227720465AD0F2
:100E4800FFF7C1FF0023237723681A69D20610D55C
:100E5800DA68D0060DD56FF010021A61DB69082236
:100E680013F4407F227720464BD0FFF7ACFF0023D6
:100E7800237723681A69D10708D5DA68D20705D518
:100E88006FF001021A612046FFF79BFF23681A6979
:100E9800100608D5DA68110605D56FF080021A61C8
:100EA800204600F096F923681A69520608D5DA68D0
:100EB800500605D56FF040021A612046FFF785FFFE
:100EC80023681A69910622D5DA6892061FD56FF051
:100ED800200220461A61BDE8104000F079B9FFF7FA
:100EE80071FF2046FFF770FF83E7FFF76BFF20468F
:100EF800FFF76AFF92E7FFF765FF2046FFF764FFF9
:100F0800A0E7FFF75FFF2046FFF75EFFAFE710BDE2
:100F1800304A0368904212D0B0F1804F0FD0A2F54A
:100F28007C4290420BD002F58062904207D002F5D5
:100F38008062904203D002F57842904219D14A6803
:100F480023F070031343234A904229D0B0F1804F15
:100F580026D0A2F57C42904222D002F580629042CF
:100F68001ED002F5806290421AD002F57842904273
:100F780016D0194A904213D002F5806290420FD0E1
:100F880002F5806290420BD0A2F59832904207D0C9
:100F980002F58062904203D002F58062904203D14C
:100FA800CA6823F4407313434A6923F08003134348
:100FB80003608B68C3620B688362064B984203D058
:100FC80003F58063984201D10B69036301234361F0
:100FD800704700BF000001400040014010B50446C2
:100FE800A0B190F83D3003F0FF021BB980F83C2017
:100FF80000F010FB022384F83D302068211DFFF724
:1010080087FF012384F83D30002010BD012010BD6A
:1010180010B584680A4324F47F4442EA0323234337
:10102800836010BD90F83C30012B70B504464FF03A
:10103800020019D084F83D002068012384F83C3070
:10104800836823F47F4323F0770383600B68402B86
:1010580065D015D8102B0CD007D853B10123002028
:1010680084F83D3084F83C0070BD202B01D0302B33
:10107800F4D1826843F0070322F0700213431AE0A8
:10108800602B34D019D8502BE8D14A68CE68016A51
:10109800056A25F001050562836921F00A0123F03C
:1010A800F00343EA06130A4383610262836823F06C
:1010B800700343F057038360D0E7702B0CD0B3F56F
:1010C800005FCBD1CB684A688968FFF7A1FF226827
:1010D800936843F4804308E0CB684A688968FFF75F
:1010E80097FF2268936843F077039360B6E74D68EB
:1010F800CE68016A21F0100101628269036A22F454
:10110800704223F0A00343EA051342EA06328261E3
:101118000362836823F0700343F06703CBE74A68F0
:10112800CE68016A056A25F001050562836921F028
:101138000A0123F0F00343EA06130A4383610262BB
:10114800836823F0700343F04703B4E790F83C301A
:10115800012B30B54FF0020335D080F83D300368DD
:101168000D685C6824F0700401222C4380F83C2050
:101178009A685C60154CA3421AD0B3F1804F17D01F
:10118800A4F57C44A34213D004F58064A3420FD095
:1011980004F58064A3420BD004F57844A34207D039
:1011A80004F57054A34203D0A4F59434A34204D1A7
:1011B800496822F080020A439A60012380F83D3092
:1011C800002380F83C30184630BD00BF00000140C5
:1011D8007047704738B50368C1681A69044622F435
:1011E80040520A431A612569A268D968C0692A432E
:1011F800656921F416412A4321F00C0102430A4390
:10120800DA605A69A16922F440720A43B0F5004FC6
:101218005A61254A29D1934203D002F5806293424C
:1012280020D1FFF781FD6268256892184FF000030E
:101238004FF019015B41A0FB0101FEF7C1FF6421DA
:10124800B0FBF1F401FB1403DB003233B3FBF1F321
:1012580003F007025B0002EB041203F4F873134473
:10126800AB6038BDFFF750FDDDE7934202D00F4A6F
:10127800934216D1FFF758FD6368256819219A0033
:10128800A0FB01019B0FFEF79BFF6422B0FBF2F16C
:1012980002FB11031B013233B3FBF2F303EB01131F
:1012A800DEE7FFF731FDE7E70010014000140140D9
:1012B80010B5044640B390F8393003F0FF021BB96B
:1012C80080F8382000F0D6F92268242384F83930D1
:1012D800D36823F40053D3602046FFF77BFF2368CD
:1012E8001A6922F490421A615A6922F02A025A6154
:1012F800DA6842F40052DA6000202023E06384F8C0
:10130800393084F83A3010BD012010BD30B595B0A1
:101318003022002108A800F055FA0021142203A861
:1013280000F050FA00241D4B01941A6C42F08052D0
:101338001A641B6C03F080530193019B184B0294B1
:101348001A6842F480421A601B6803F480430293CF
:10135800029B012308934FF4803309934FF48003D1
:101368000F93082310934FF4A8730225119308A82C
:10137800072313930E951295FFF756FA0F2303933D
:101388004FF4A053069305214FF4805303A8049506
:1013980005940793FFF71CFC15B030BD00380240D8
:1013A8000070004080B58CB0FFF7B6F8FFF7AEFFCD
:1013B8001422002107A8002400F004FA5E4B0194CF
:1013C8001A6B5E4842F004021A631A6B02F00402B8
:1013D8000192019A02941A6B42F080021A631A6B06
:1013E80002F080020292029A03941A6B42F0010200
:1013F8001A631A6B02F001020392039A04941A6B9F
:1014080042F008021A631B6B03F008030493224698
:101418001021049BFFF7F6F922464FF47041484823
:10142800FFF7F0F91026474B4748089307A901250D
:1014380007960994FFF706F907A940480895079603
:1014480009940A94FFF7FEF84FF4704307A93C4843
:101458000793089509940A94FFF7F4F82246214661
:101468000A20FFF797F80A20384DFFF7C7F83246E9
:10147800214607A800F0A6F9354BAC60284685E858
:101488001800EC602C616C61AC614FF480570594D6
:101498000694FFF7A3FD07A928460797FFF7C2FDA3
:1014A80005A9284605940694FFF750FE29482A4ABC
:1014B8002A4D84604FF4827380E80C004FF4007367
:1014C80083610A23C362C46004614461C461046225
:1014D80044628462FFF738FC3246214607A800F0D0
:1014E80071F94FF08041532385E80A00284642F2FB
:1014F8000F73EB60AC602C61AC6105940694FFF748
:101508006DFD07A928460797FFF78CFD284605A912
:1015180005940694FFF71AFE1148124B84604FF4A5
:10152800E13580E828000C23C460046143618461CC
:10153800C461FFF7BDFEFEE7003802400008024024
:10154800000C024000001110000002406C00002056
:1015580000000140AC0000200030014004010020E0
:101568002C0000200048004007B50E4B00210091D8
:101578005A6C42F480425A645A6C02F480420092D7
:10158800009A01911A6C42F080521A641B6C03F0A5
:10159800805301930720019BFEF7EAFF03B05DF833
:1015A80004FB00BF0038024010B5044688B014227E
:1015B800002103A800F006F92268144B9A4222D1B0
:1015C80003F58433002101915A6C114842F480528A
:1015D8005A645A6C02F480520192019A02911A6B71
:1015E80042F001021A631B6B03F001030293029B92
:1015F800E0230393022304930323069303A90523FB
:101608000793FFF71FF808B010BD00BF0030014076
:101618000000024007B50368144A93420ED1002324
:101628000093134B5A6C42F001025A645B6C03F04E
:1016380001030093009B03B05DF804FBB3F1804FF6
:10164800F9D1002203F50E330192196C41F0010122
:1016580019641B6C03F00103019311461C20019BC4
:10166800FEF798FF1C20FEF7C9FFE4E700000140E1
:101678000038024010B5044688B01422002103A89F
:1016880000F0A0F82268154B9A4225D103F5F833EB
:10169800002101911A6C124842F480221A641A6CD3
:1016A80002F480220192019A02911A6B42F0080218
:1016B8001A631B6B03F008030293029B4FF44073F9
:1016C800039302230493012305930323069303A999
:1016D80007230793FEF7B6FF08B010BD0048004087
:1016E800000C02407047FEE7FEE7FEE7FEE77047A2
:1016F80070477047FEF72ABF1020FFF789B800002F
:101708000148FFF763BB00BF04010020054BD3F875
:10171800882042F47002C3F888204FF000629A6073
:10172800704700BF00ED00E0DFF834D0002103E08F
:101738000C4B5B58435004310B480C4B42189A42EF
:10174800F6D30B4A02E0002342F8043B094B9A42C5
:10175800F9D3FFF7DBFF00F011F8FFF723FE70471E
:10176800000002201C180008000000200C000020C7
:101778000C00002044010020FEE7000070B50D4E6B
:101788000D4CA41BA4100025A54209D10B4E0C4CEE
:1017980000F020F8A41BA4100025A54205D170BDB7
:1017A80056F8253098470135EEE756F82530984722
:1017B8000135F2E714180008141800081418000876
:1017C8001818000802440346934200D1704703F8F2
:1017D800011BF9E7F8B500BFF8BC08BC9E46704786
:0C17E800F8B500BFF8BC08BC9E46704776
:1017F40000000000000000000102030406070809BD
:081804000000000001020304D2
:08180C00ECE9FF7F0100000080
:04181400AD0100081A
:04181800890100083A
:0C181C0001000000100000000024F40097
:0400000508001731A7
:00000001FF
